{
  "contractName": "BankV1",
  "abi": [
    {
      "anonymous": false,
      "inputs": [
        {
          "indexed": false,
          "internalType": "uint8",
          "name": "version",
          "type": "uint8"
        }
      ],
      "name": "Initialized",
      "type": "event"
    },
    {
      "stateMutability": "nonpayable",
      "type": "fallback"
    },
    {
      "inputs": [
        {
          "internalType": "address",
          "name": "",
          "type": "address"
        }
      ],
      "name": "stakedAmount",
      "outputs": [
        {
          "internalType": "uint256",
          "name": "",
          "type": "uint256"
        }
      ],
      "stateMutability": "view",
      "type": "function"
    },
    {
      "stateMutability": "payable",
      "type": "receive"
    },
    {
      "inputs": [
        {
          "internalType": "address",
          "name": "rewardContract",
          "type": "address"
        },
        {
          "internalType": "uint256",
          "name": "T",
          "type": "uint256"
        },
        {
          "internalType": "uint256",
          "name": "rewardPoolSize",
          "type": "uint256"
        }
      ],
      "name": "initialize",
      "outputs": [],
      "stateMutability": "nonpayable",
      "type": "function"
    },
    {
      "inputs": [
        {
          "internalType": "uint256",
          "name": "amount",
          "type": "uint256"
        }
      ],
      "name": "deposit",
      "outputs": [
        {
          "internalType": "bool",
          "name": "",
          "type": "bool"
        }
      ],
      "stateMutability": "nonpayable",
      "type": "function"
    },
    {
      "inputs": [],
      "name": "withdraw",
      "outputs": [
        {
          "internalType": "bool",
          "name": "",
          "type": "bool"
        }
      ],
      "stateMutability": "nonpayable",
      "type": "function"
    },
    {
      "inputs": [],
      "name": "withdrawRemaining",
      "outputs": [],
      "stateMutability": "nonpayable",
      "type": "function"
    }
  ],
  "bytecode": "0x608060405234801561001057600080fd5b50611a34806100206000396000f3fe60806040526004361061004e5760003560e01c80633ccfd60b146100635780637a1ac61e1461008e578063b6b55f25146100b7578063ee38db95146100f4578063f99318551461010b57610055565b3661005557005b34801561006157600080fd5b005b34801561006f57600080fd5b50610078610148565b60405161008591906110d4565b60405180910390f35b34801561009a57600080fd5b506100b560048036038101906100b09190611188565b61044c565b005b3480156100c357600080fd5b506100de60048036038101906100d991906111db565b61069e565b6040516100eb91906110d4565b60405180910390f35b34801561010057600080fd5b506101096109ee565b005b34801561011757600080fd5b50610132600480360381019061012d9190611208565b610bf1565b60405161013f9190611244565b60405180910390f35b60008060045411801561019a57506000600960003373ffffffffffffffffffffffffffffffffffffffff1673ffffffffffffffffffffffffffffffffffffffff16815260200190815260200160002054115b80156101a857506000600354115b6101e7576040517f08c379a00000000000000000000000000000000000000000000000000000000081526004016101de906112bc565b60405180910390fd5b6000600960003373ffffffffffffffffffffffffffffffffffffffff1673ffffffffffffffffffffffffffffffffffffffff1681526020019081526020016000205411801561023857506000600354115b610277576040517f08c379a000000000000000000000000000000000000000000000000000000000815260040161026e90611328565b60405180910390fd5b6001546002546102879190611377565b42116102c8576040517f08c379a00000000000000000000000000000000000000000000000000000000081526004016102bf90611419565b60405180910390fd5b6000600960003373ffffffffffffffffffffffffffffffffffffffff1673ffffffffffffffffffffffffffffffffffffffff16815260200190815260200160002054816103159190611377565b9050600061032233610c09565b90506000600960003373ffffffffffffffffffffffffffffffffffffffff1673ffffffffffffffffffffffffffffffffffffffff168152602001908152602001600020819055506004600081548092919061037c90611439565b919050555081600360008282546103939190611462565b92505081905550600060029054906101000a900473ffffffffffffffffffffffffffffffffffffffff1673ffffffffffffffffffffffffffffffffffffffff1663a9059cbb3383856103e59190611377565b6040518363ffffffff1660e01b81526004016104029291906114a5565b6020604051808303816000875af1158015610421573d6000803e3d6000fd5b505050506040513d601f19601f8201168201806040525081019061044591906114fa565b9250505090565b60006104586001610fa6565b9050801561047c576001600060016101000a81548160ff0219169083151502179055505b83600060026101000a81548173ffffffffffffffffffffffffffffffffffffffff021916908373ffffffffffffffffffffffffffffffffffffffff160217905550426002819055508260018190555081600060029054906101000a900473ffffffffffffffffffffffffffffffffffffffff1673ffffffffffffffffffffffffffffffffffffffff166370a08231306040518263ffffffff1660e01b81526004016105279190611527565b602060405180830381865afa158015610544573d6000803e3d6000fd5b505050506040513d601f19601f820116820180604052508101906105689190611557565b10156105a9576040517f08c379a00000000000000000000000000000000000000000000000000000000081526004016105a0906115f6565b60405180910390fd5b6005826105b69190611645565b60068190555060646003836105cb9190611676565b6105d59190611645565b6007819055506002826105e89190611645565b6008819055506000600381905550600060048190555033600560006101000a81548173ffffffffffffffffffffffffffffffffffffffff021916908373ffffffffffffffffffffffffffffffffffffffff16021790555080156106985760008060016101000a81548160ff0219169083151502179055507f7f26b83ff96e1f2b6a682f133852f6798a09c465da95921460cefb3847402498600160405161068f9190611722565b60405180910390a15b50505050565b60006001546002546106b09190611377565b4211156106f2576040517f08c379a00000000000000000000000000000000000000000000000000000000081526004016106e990611789565b60405180910390fd5b81600060029054906101000a900473ffffffffffffffffffffffffffffffffffffffff1673ffffffffffffffffffffffffffffffffffffffff166370a08231336040518263ffffffff1660e01b815260040161074e9190611527565b602060405180830381865afa15801561076b573d6000803e3d6000fd5b505050506040513d601f19601f8201168201806040525081019061078f9190611557565b10156107d0576040517f08c379a00000000000000000000000000000000000000000000000000000000081526004016107c7906117f5565b60405180910390fd5b600060029054906101000a900473ffffffffffffffffffffffffffffffffffffffff1673ffffffffffffffffffffffffffffffffffffffff1663095ea7b330846040518363ffffffff1660e01b815260040161082d9291906114a5565b6020604051808303816000875af115801561084c573d6000803e3d6000fd5b505050506040513d601f19601f8201168201806040525081019061087091906114fa565b5060008060029054906101000a900473ffffffffffffffffffffffffffffffffffffffff1673ffffffffffffffffffffffffffffffffffffffff166323b872dd3330866040518463ffffffff1660e01b81526004016108d193929190611815565b6020604051808303816000875af11580156108f0573d6000803e3d6000fd5b505050506040513d601f19601f8201168201806040525081019061091491906114fa565b90506000600960003373ffffffffffffffffffffffffffffffffffffffff1673ffffffffffffffffffffffffffffffffffffffff168152602001908152602001600020540361097657600460008154809291906109709061184c565b91905055505b82600960003373ffffffffffffffffffffffffffffffffffffffff1673ffffffffffffffffffffffffffffffffffffffff16815260200190815260200160002060008282546109c59190611377565b9250508190555082600360008282546109de9190611377565b9250508190555080915050919050565b600560009054906101000a900473ffffffffffffffffffffffffffffffffffffffff1673ffffffffffffffffffffffffffffffffffffffff163373ffffffffffffffffffffffffffffffffffffffff1614610a4857600080fd5b6000600354148015610a5c57506000600454145b610a9b576040517f08c379a0000000000000000000000000000000000000000000000000000000008152600401610a92906118e0565b60405180910390fd5b6001546004610aaa9190611676565b600254610ab79190611377565b4210610af8576040517f08c379a0000000000000000000000000000000000000000000000000000000008152600401610aef9061194c565b60405180910390fd5b600060029054906101000a900473ffffffffffffffffffffffffffffffffffffffff1673ffffffffffffffffffffffffffffffffffffffff1663a9059cbb600560009054906101000a900473ffffffffffffffffffffffffffffffffffffffff16600854600754600654610b6c9190611377565b610b769190611377565b6040518363ffffffff1660e01b8152600401610b939291906114a5565b6020604051808303816000875af1158015610bb2573d6000803e3d6000fd5b505050506040513d601f19601f82011682018060405250810190610bd691906114fa565b50600060068190555060006007819055506000600881905550565b60096020528060005260406000206000915090505481565b6000806000905060006001546002610c219190611676565b600254610c2e9190611377565b42118015610c5757506001546003610c469190611676565b600254610c539190611377565b4211155b15610ce457600654905060035481610c6f9190611645565b600960008673ffffffffffffffffffffffffffffffffffffffff1673ffffffffffffffffffffffffffffffffffffffff16815260200190815260200160002054610cb99190611676565b82610cc49190611377565b91508160066000828254610cd89190611462565b92505081905550610f9c565b6001546003610cf39190611676565b600254610d009190611377565b42118015610d2957506001546004610d189190611676565b600254610d259190611377565b4211155b15610e2957600754600654610d3e9190611377565b905060035481610d4e9190611645565b600960008673ffffffffffffffffffffffffffffffffffffffff1673ffffffffffffffffffffffffffffffffffffffff16815260200190815260200160002054610d989190611676565b82610da39190611377565b91506006548211610dcc578160066000828254610dc09190611462565b92505081905550610e24565b600060065403610df4578160076000828254610de89190611462565b92505081905550610e23565b60065482610e029190611462565b60076000828254610e139190611462565b9250508190555060006006819055505b5b610f9b565b600854600754600654610e3c9190611377565b610e469190611377565b905060035481610e569190611645565b600960008673ffffffffffffffffffffffffffffffffffffffff1673ffffffffffffffffffffffffffffffffffffffff16815260200190815260200160002054610ea09190611676565b82610eab9190611377565b91506006548211610ed4578160066000828254610ec89190611462565b92505081905550610f9a565b6000600654148015610ee857506000600754145b15610f0b578160086000828254610eff9190611462565b92505081905550610f99565b600754600654610f1b9190611377565b8211610f545760065482610f2f9190611462565b60076000828254610f409190611462565b925050819055506000600681905550610f98565b60075460065483610f659190611462565b610f6f9190611462565b60086000828254610f809190611462565b92505081905550600060078190555060006008819055505b5b5b5b5b8192505050919050565b60008060019054906101000a900460ff161561101d5760018260ff16148015610fd55750610fd330611096565b155b611014576040517f08c379a000000000000000000000000000000000000000000000000000000000815260040161100b906119de565b60405180910390fd5b60009050611091565b8160ff1660008054906101000a900460ff1660ff1610611072576040517f08c379a0000000000000000000000000000000000000000000000000000000008152600401611069906119de565b60405180910390fd5b816000806101000a81548160ff021916908360ff160217905550600190505b919050565b6000808273ffffffffffffffffffffffffffffffffffffffff163b119050919050565b60008115159050919050565b6110ce816110b9565b82525050565b60006020820190506110e960008301846110c5565b92915050565b600080fd5b600073ffffffffffffffffffffffffffffffffffffffff82169050919050565b600061111f826110f4565b9050919050565b61112f81611114565b811461113a57600080fd5b50565b60008135905061114c81611126565b92915050565b6000819050919050565b61116581611152565b811461117057600080fd5b50565b6000813590506111828161115c565b92915050565b6000806000606084860312156111a1576111a06110ef565b5b60006111af8682870161113d565b93505060206111c086828701611173565b92505060406111d186828701611173565b9150509250925092565b6000602082840312156111f1576111f06110ef565b5b60006111ff84828501611173565b91505092915050565b60006020828403121561121e5761121d6110ef565b5b600061122c8482850161113d565b91505092915050565b61123e81611152565b82525050565b60006020820190506112596000830184611235565b92915050565b600082825260208201905092915050565b7f4e6f207374616b65727300000000000000000000000000000000000000000000600082015250565b60006112a6600a8361125f565b91506112b182611270565b602082019050919050565b600060208201905081810360008301526112d581611299565b9050919050565b7f4e6f207374616b656420746f6b656e7300000000000000000000000000000000600082015250565b600061131260108361125f565b915061131d826112dc565b602082019050919050565b6000602082019050818103600083015261134181611305565b9050919050565b7f4e487b7100000000000000000000000000000000000000000000000000000000600052601160045260246000fd5b600061138282611152565b915061138d83611152565b9250827fffffffffffffffffffffffffffffffffffffffffffffffffffffffffffffffff038211156113c2576113c1611348565b5b828201905092915050565b7f57616974696e6720706572696f642069732079657420746f2070617373000000600082015250565b6000611403601d8361125f565b915061140e826113cd565b602082019050919050565b60006020820190508181036000830152611432816113f6565b9050919050565b600061144482611152565b91506000820361145757611456611348565b5b600182039050919050565b600061146d82611152565b915061147883611152565b92508282101561148b5761148a611348565b5b828203905092915050565b61149f81611114565b82525050565b60006040820190506114ba6000830185611496565b6114c76020830184611235565b9392505050565b6114d7816110b9565b81146114e257600080fd5b50565b6000815190506114f4816114ce565b92915050565b6000602082840312156115105761150f6110ef565b5b600061151e848285016114e5565b91505092915050565b600060208201905061153c6000830184611496565b92915050565b6000815190506115518161115c565b92915050565b60006020828403121561156d5761156c6110ef565b5b600061157b84828501611542565b91505092915050565b7f4e6f7420656e6f7567682072657761726420746f6b656e7320617661696c616260008201527f6c65000000000000000000000000000000000000000000000000000000000000602082015250565b60006115e060228361125f565b91506115eb82611584565b604082019050919050565b6000602082019050818103600083015261160f816115d3565b9050919050565b7f4e487b7100000000000000000000000000000000000000000000000000000000600052601260045260246000fd5b600061165082611152565b915061165b83611152565b92508261166b5761166a611616565b5b828204905092915050565b600061168182611152565b915061168c83611152565b9250817fffffffffffffffffffffffffffffffffffffffffffffffffffffffffffffffff04831182151516156116c5576116c4611348565b5b828202905092915050565b6000819050919050565b600060ff82169050919050565b6000819050919050565b600061170c611707611702846116d0565b6116e7565b6116da565b9050919050565b61171c816116f1565b82525050565b60006020820190506117376000830184611713565b92915050565b7f5374616b696e672074696d652068617320656c61707365640000000000000000600082015250565b600061177360188361125f565b915061177e8261173d565b602082019050919050565b600060208201905081810360008301526117a281611766565b9050919050565b7f4e6f7420656e6f7567682072657761726420746f6b656e2062616c616e636500600082015250565b60006117df601f8361125f565b91506117ea826117a9565b602082019050919050565b6000602082019050818103600083015261180e816117d2565b9050919050565b600060608201905061182a6000830186611496565b6118376020830185611496565b6118446040830184611235565b949350505050565b600061185782611152565b91507fffffffffffffffffffffffffffffffffffffffffffffffffffffffffffffffff820361188957611888611348565b5b600182019050919050565b7f5374616b656420746f6b656e732072656d61696e000000000000000000000000600082015250565b60006118ca60148361125f565b91506118d582611894565b602082019050919050565b600060208201905081810360008301526118f9816118bd565b9050919050565b7f436c61696d2074696d652077696e646f77206861732070617373656400000000600082015250565b6000611936601c8361125f565b915061194182611900565b602082019050919050565b6000602082019050818103600083015261196581611929565b9050919050565b7f496e697469616c697a61626c653a20636f6e747261637420697320616c72656160008201527f647920696e697469616c697a6564000000000000000000000000000000000000602082015250565b60006119c8602e8361125f565b91506119d38261196c565b604082019050919050565b600060208201905081810360008301526119f7816119bb565b905091905056fea2646970667358221220400d07fc13c40ce706a710930314415897e88b2bac97a78f2e7ffbd60b91cf5f64736f6c634300080f0033",
  "immutableReferences": {},
  "source": "// SPDX-License-Identifier: MIT\r\npragma solidity ^0.8.15;\r\n\r\nimport \"@openzeppelin/contracts/token/ERC20/ERC20.sol\";\r\nimport \"@openzeppelin/contracts-upgradeable/proxy/utils/Initializable.sol\";\r\n\r\ncontract BankV1 is Initializable {\r\n    ERC20 rewardToken;\r\n    uint256 timePeriod;\r\n    uint256 startTime;\r\n    uint256 stakingPool;\r\n    uint256 stakers;\r\n    address owner;\r\n    uint256 r1;\r\n    uint256 r2;\r\n    uint256 r3;\r\n    mapping(address => uint256) public stakedAmount;\r\n\r\n    modifier onlyOwner() {\r\n        require(msg.sender == owner);\r\n        _;\r\n    }\r\n\r\n    //rewardContract: the ERC20 contract whose tokens are used for the reward pool\r\n    //T: Time period in seconds\r\n    //rewardPoolSize: the reward pool for staking rewards\r\n    function initialize(\r\n        address rewardContract,\r\n        uint256 T,\r\n        uint256 rewardPoolSize\r\n    ) external initializer {\r\n        rewardToken = ERC20(rewardContract);\r\n        startTime = block.timestamp;\r\n        timePeriod = T;\r\n        require(\r\n            rewardToken.balanceOf(address(this)) >= rewardPoolSize,\r\n            \"Not enough reward tokens available\"\r\n        );\r\n        r1 = rewardPoolSize / 5;\r\n        r2 = (rewardPoolSize * 3) / 100;\r\n        r3 = rewardPoolSize / 2;\r\n        stakingPool = 0;\r\n        stakers = 0;\r\n        owner = msg.sender;\r\n    }\r\n\r\n    function deposit(uint256 amount) external returns (bool) {\r\n        require(\r\n            block.timestamp <= (startTime + timePeriod),\r\n            \"Staking time has elapsed\"\r\n        );\r\n        require(\r\n            rewardToken.balanceOf(msg.sender) >= amount,\r\n            \"Not enough reward token balance\"\r\n        );\r\n        rewardToken.approve(address(this), amount);\r\n        bool transferred = rewardToken.transferFrom(\r\n            msg.sender,\r\n            address(this),\r\n            amount\r\n        );\r\n        if (stakedAmount[msg.sender] == 0) {\r\n            stakers++;\r\n        }\r\n        stakedAmount[msg.sender] += amount;\r\n        stakingPool += amount;\r\n        return (transferred);\r\n    }\r\n\r\n    function calculateReward(address staker) internal returns (uint256) {\r\n        uint256 reward = 0;\r\n        uint256 availableRewardPool;\r\n        if (\r\n            block.timestamp > (startTime + 2 * timePeriod) &&\r\n            block.timestamp <= (startTime + 3 * timePeriod)\r\n        ) {\r\n            availableRewardPool = r1;\r\n            reward +=\r\n                stakedAmount[staker] * (availableRewardPool /\r\n                stakingPool);\r\n            r1 -= reward;\r\n        } else if (\r\n            block.timestamp > (startTime + 3 * timePeriod) &&\r\n            block.timestamp <= (startTime + 4 * timePeriod)\r\n        ) {\r\n            availableRewardPool = r1 + r2;\r\n            reward +=\r\n                stakedAmount[staker] * (availableRewardPool /\r\n                stakingPool);\r\n            if (reward <= r1) r1 -= reward;\r\n            else if (r1 == 0) r2 -= reward;\r\n            else {\r\n                r2 -= (reward-r1);\r\n                r1 = 0;\r\n            }\r\n        } else {\r\n            availableRewardPool = r1 + r2 + r3;\r\n            reward +=\r\n                stakedAmount[staker] * (availableRewardPool /\r\n                stakingPool);\r\n            if (reward <= r1) r1 -= reward;\r\n            else if (r1 == 0 && r2 == 0) r3 -= reward;\r\n            else if (reward <= (r1+r2)){\r\n                r2 -= (reward-r1);\r\n                r1 = 0;\r\n            }\r\n            else {\r\n                r3 -= (reward - r1 - r2);\r\n                r2 = 0;\r\n                r3 = 0;\r\n            }\r\n        }\r\n        return (reward);\r\n    }\r\n\r\n    function withdraw() external returns (bool) {\r\n        require(\r\n            stakers > 0 && stakedAmount[msg.sender] > 0 && stakingPool > 0,\r\n            \"No stakers\"\r\n        );\r\n        require(\r\n            stakedAmount[msg.sender] > 0 && stakingPool > 0,\r\n            \"No staked tokens\"\r\n        );\r\n        require(\r\n            block.timestamp > (startTime + timePeriod),\r\n            \"Waiting period is yet to pass\"\r\n        );\r\n        uint256 amount = 0;\r\n        amount += stakedAmount[msg.sender];\r\n        uint256 reward = calculateReward(msg.sender);\r\n        stakedAmount[msg.sender] = 0;\r\n        stakers--;\r\n        stakingPool -= amount;\r\n        return (rewardToken.transfer(msg.sender, amount + reward));\r\n    }\r\n\r\n    function withdrawRemaining() external onlyOwner {\r\n        require(stakingPool == 0 && stakers == 0, \"Staked tokens remain\");\r\n        require(block.timestamp < (startTime + 4 * timePeriod),\"Claim time window has passed\");\r\n        rewardToken.transfer(owner, r1+r2+r3);\r\n        r1 = 0;\r\n        r2 = 0;\r\n        r3 = 0;\r\n    } \r\n\r\n    fallback() external {}\r\n\r\n    receive() external payable {}\r\n}\r\n",
  "sourcePath": "D:\\Personal projects\\banking-staking\\contracts\\BankV1.sol",
  "compiler": {
    "name": "solc",
    "version": "0.8.15+commit.e14f2714.Emscripten.clang"
  },
  "schemaVersion": "3.4.7",
  "updatedAt": "2022-06-27T17:51:34.459Z",
  "devdoc": {
    "kind": "dev",
    "methods": {},
    "version": 1
  },
  "userdoc": {
    "kind": "user",
    "methods": {},
    "version": 1
  }
}