{
  "contractName": "BankV1",
  "abi": [
    {
      "anonymous": false,
      "inputs": [
        {
          "indexed": true,
          "internalType": "address",
          "name": "user",
          "type": "address"
        },
        {
          "indexed": true,
          "internalType": "uint256",
          "name": "amount",
          "type": "uint256"
        }
      ],
      "name": "Deposited",
      "type": "event"
    },
    {
      "anonymous": false,
      "inputs": [
        {
          "indexed": false,
          "internalType": "uint8",
          "name": "version",
          "type": "uint8"
        }
      ],
      "name": "Initialized",
      "type": "event"
    },
    {
      "anonymous": false,
      "inputs": [
        {
          "indexed": true,
          "internalType": "address",
          "name": "user",
          "type": "address"
        },
        {
          "indexed": true,
          "internalType": "uint256",
          "name": "amount",
          "type": "uint256"
        }
      ],
      "name": "Redeemed",
      "type": "event"
    },
    {
      "stateMutability": "nonpayable",
      "type": "fallback"
    },
    {
      "inputs": [
        {
          "internalType": "address",
          "name": "",
          "type": "address"
        }
      ],
      "name": "stakedAmount",
      "outputs": [
        {
          "internalType": "uint256",
          "name": "",
          "type": "uint256"
        }
      ],
      "stateMutability": "view",
      "type": "function",
      "constant": true
    },
    {
      "inputs": [],
      "name": "startTime",
      "outputs": [
        {
          "internalType": "uint256",
          "name": "",
          "type": "uint256"
        }
      ],
      "stateMutability": "view",
      "type": "function",
      "constant": true
    },
    {
      "inputs": [],
      "name": "timePeriod",
      "outputs": [
        {
          "internalType": "uint256",
          "name": "",
          "type": "uint256"
        }
      ],
      "stateMutability": "view",
      "type": "function",
      "constant": true
    },
    {
      "stateMutability": "payable",
      "type": "receive",
      "payable": true
    },
    {
      "inputs": [
        {
          "internalType": "address",
          "name": "rewardContract",
          "type": "address"
        },
        {
          "internalType": "uint256",
          "name": "T",
          "type": "uint256"
        },
        {
          "internalType": "uint256",
          "name": "rewardPoolSize",
          "type": "uint256"
        }
      ],
      "name": "initialize",
      "outputs": [],
      "stateMutability": "nonpayable",
      "type": "function"
    },
    {
      "inputs": [
        {
          "internalType": "uint256",
          "name": "amount",
          "type": "uint256"
        }
      ],
      "name": "deposit",
      "outputs": [
        {
          "internalType": "bool",
          "name": "",
          "type": "bool"
        }
      ],
      "stateMutability": "nonpayable",
      "type": "function"
    },
    {
      "inputs": [],
      "name": "withdraw",
      "outputs": [
        {
          "internalType": "bool",
          "name": "",
          "type": "bool"
        }
      ],
      "stateMutability": "nonpayable",
      "type": "function"
    },
    {
      "inputs": [],
      "name": "withdrawRemaining",
      "outputs": [],
      "stateMutability": "nonpayable",
      "type": "function"
    }
  ],
  "bytecode": "0x608060405234801561001057600080fd5b50611a93806100206000396000f3fe6080604052600436106100745760003560e01c80637a1ac61e1161004e5780637a1ac61e1461010a578063b6b55f2514610133578063ee38db9514610170578063f9931855146101875761007b565b80633ccfd60b146100895780633e79d1e1146100b457806378e97925146100df5761007b565b3661007b57005b34801561008757600080fd5b005b34801561009557600080fd5b5061009e6101c4565b6040516100ab9190611130565b60405180910390f35b3480156100c057600080fd5b506100c961051c565b6040516100d69190611164565b60405180910390f35b3480156100eb57600080fd5b506100f4610522565b6040516101019190611164565b60405180910390f35b34801561011657600080fd5b50610131600480360381019061012c919061120e565b610528565b005b34801561013f57600080fd5b5061015a60048036038101906101559190611261565b61069c565b6040516101679190611130565b60405180910390f35b34801561017c57600080fd5b50610185610a6f565b005b34801561019357600080fd5b506101ae60048036038101906101a9919061128e565b610c72565b6040516101bb9190611164565b60405180910390f35b60008060045411801561021657506000600960003373ffffffffffffffffffffffffffffffffffffffff1673ffffffffffffffffffffffffffffffffffffffff16815260200190815260200160002054115b801561022457506000600354115b610263576040517f08c379a000000000000000000000000000000000000000000000000000000000815260040161025a90611318565b60405180910390fd5b6000600960003373ffffffffffffffffffffffffffffffffffffffff1673ffffffffffffffffffffffffffffffffffffffff168152602001908152602001600020541180156102b457506000600354115b6102f3576040517f08c379a00000000000000000000000000000000000000000000000000000000081526004016102ea90611384565b60405180910390fd5b60015460025461030391906113d3565b4211610344576040517f08c379a000000000000000000000000000000000000000000000000000000000815260040161033b90611475565b60405180910390fd5b6000600960003373ffffffffffffffffffffffffffffffffffffffff1673ffffffffffffffffffffffffffffffffffffffff168152602001908152602001600020548161039191906113d3565b9050600061039e33610c8a565b90506000600960003373ffffffffffffffffffffffffffffffffffffffff1673ffffffffffffffffffffffffffffffffffffffff16815260200190815260200160002081905550600460008154809291906103f890611495565b9190505550816003600082825461040f91906114be565b9250508190555060008060029054906101000a900473ffffffffffffffffffffffffffffffffffffffff1673ffffffffffffffffffffffffffffffffffffffff1663a9059cbb33848661046291906113d3565b6040518363ffffffff1660e01b815260040161047f929190611501565b6020604051808303816000875af115801561049e573d6000803e3d6000fd5b505050506040513d601f19601f820116820180604052508101906104c29190611556565b905081836104d091906113d3565b3373ffffffffffffffffffffffffffffffffffffffff167f4896181ff8f4543cc00db9fe9b6fb7e6f032b7eb772c72ab1ec1b4d2e03b936960405160405180910390a380935050505090565b60015481565b60025481565b60006105346001611002565b90508015610558576001600060016101000a81548160ff0219169083151502179055505b83600060026101000a81548173ffffffffffffffffffffffffffffffffffffffff021916908373ffffffffffffffffffffffffffffffffffffffff16021790555042600281905550826001819055506005826105b491906115b2565b60068190555060646003836105c991906115e3565b6105d391906115b2565b6007819055506002826105e691906115b2565b6008819055506000600381905550600060048190555033600560006101000a81548173ffffffffffffffffffffffffffffffffffffffff021916908373ffffffffffffffffffffffffffffffffffffffff16021790555080156106965760008060016101000a81548160ff0219169083151502179055507f7f26b83ff96e1f2b6a682f133852f6798a09c465da95921460cefb3847402498600160405161068d919061168f565b60405180910390a15b50505050565b60006001546002546106ae91906113d3565b4211156106f0576040517f08c379a00000000000000000000000000000000000000000000000000000000081526004016106e7906116f6565b60405180910390fd5b81600060029054906101000a900473ffffffffffffffffffffffffffffffffffffffff1673ffffffffffffffffffffffffffffffffffffffff166370a08231336040518263ffffffff1660e01b815260040161074c9190611716565b602060405180830381865afa158015610769573d6000803e3d6000fd5b505050506040513d601f19601f8201168201806040525081019061078d9190611746565b10156107ce576040517f08c379a00000000000000000000000000000000000000000000000000000000081526004016107c5906117bf565b60405180910390fd5b81600060029054906101000a900473ffffffffffffffffffffffffffffffffffffffff1673ffffffffffffffffffffffffffffffffffffffff1663dd62ed3e33306040518363ffffffff1660e01b815260040161082c9291906117df565b602060405180830381865afa158015610849573d6000803e3d6000fd5b505050506040513d601f19601f8201168201806040525081019061086d9190611746565b10156108ae576040517f08c379a00000000000000000000000000000000000000000000000000000000081526004016108a590611854565b60405180910390fd5b60008060029054906101000a900473ffffffffffffffffffffffffffffffffffffffff1673ffffffffffffffffffffffffffffffffffffffff166323b872dd3330866040518463ffffffff1660e01b815260040161090e93929190611874565b6020604051808303816000875af115801561092d573d6000803e3d6000fd5b505050506040513d601f19601f820116820180604052508101906109519190611556565b90506000600960003373ffffffffffffffffffffffffffffffffffffffff1673ffffffffffffffffffffffffffffffffffffffff16815260200190815260200160002054036109b357600460008154809291906109ad906118ab565b91905055505b82600960003373ffffffffffffffffffffffffffffffffffffffff1673ffffffffffffffffffffffffffffffffffffffff1681526020019081526020016000206000828254610a0291906113d3565b925050819055508260036000828254610a1b91906113d3565b92505081905550823373ffffffffffffffffffffffffffffffffffffffff167f2da466a7b24304f47e87fa2e1e5a81b9831ce54fec19055ce277ca2f39ba42c460405160405180910390a380915050919050565b600560009054906101000a900473ffffffffffffffffffffffffffffffffffffffff1673ffffffffffffffffffffffffffffffffffffffff163373ffffffffffffffffffffffffffffffffffffffff1614610ac957600080fd5b6000600354148015610add57506000600454145b610b1c576040517f08c379a0000000000000000000000000000000000000000000000000000000008152600401610b139061193f565b60405180910390fd5b6001546004610b2b91906115e3565b600254610b3891906113d3565b4210610b79576040517f08c379a0000000000000000000000000000000000000000000000000000000008152600401610b70906119ab565b60405180910390fd5b600060029054906101000a900473ffffffffffffffffffffffffffffffffffffffff1673ffffffffffffffffffffffffffffffffffffffff1663a9059cbb600560009054906101000a900473ffffffffffffffffffffffffffffffffffffffff16600854600754600654610bed91906113d3565b610bf791906113d3565b6040518363ffffffff1660e01b8152600401610c14929190611501565b6020604051808303816000875af1158015610c33573d6000803e3d6000fd5b505050506040513d601f19601f82011682018060405250810190610c579190611556565b50600060068190555060006007819055506000600881905550565b60096020528060005260406000206000915090505481565b60008060006001546002610c9e91906115e3565b600254610cab91906113d3565b42118015610cd457506001546003610cc391906115e3565b600254610cd091906113d3565b4211155b15610d5657600654905060035481600960008773ffffffffffffffffffffffffffffffffffffffff1673ffffffffffffffffffffffffffffffffffffffff16815260200190815260200160002054610d2c91906115e3565b610d3691906115b2565b91508160066000828254610d4a91906114be565b92505081905550610ff8565b6001546003610d6591906115e3565b600254610d7291906113d3565b42118015610d9b57506001546004610d8a91906115e3565b600254610d9791906113d3565b4211155b15610e9057600754600654610db091906113d3565b905060035481600960008773ffffffffffffffffffffffffffffffffffffffff1673ffffffffffffffffffffffffffffffffffffffff16815260200190815260200160002054610e0091906115e3565b610e0a91906115b2565b91506006548211610e33578160066000828254610e2791906114be565b92505081905550610e8b565b600060065403610e5b578160076000828254610e4f91906114be565b92505081905550610e8a565b60065482610e6991906114be565b60076000828254610e7a91906114be565b9250508190555060006006819055505b5b610ff7565b600854600754600654610ea391906113d3565b610ead91906113d3565b905060035481600960008773ffffffffffffffffffffffffffffffffffffffff1673ffffffffffffffffffffffffffffffffffffffff16815260200190815260200160002054610efd91906115e3565b610f0791906115b2565b91506006548211610f30578160066000828254610f2491906114be565b92505081905550610ff6565b6000600654148015610f4457506000600754145b15610f67578160086000828254610f5b91906114be565b92505081905550610ff5565b600754600654610f7791906113d3565b8211610fb05760065482610f8b91906114be565b60076000828254610f9c91906114be565b925050819055506000600681905550610ff4565b60075460065483610fc191906114be565b610fcb91906114be565b60086000828254610fdc91906114be565b92505081905550600060078190555060006006819055505b5b5b5b5b8192505050919050565b60008060019054906101000a900460ff16156110795760018260ff16148015611031575061102f306110f2565b155b611070576040517f08c379a000000000000000000000000000000000000000000000000000000000815260040161106790611a3d565b60405180910390fd5b600090506110ed565b8160ff1660008054906101000a900460ff1660ff16106110ce576040517f08c379a00000000000000000000000000000000000000000000000000000000081526004016110c590611a3d565b60405180910390fd5b816000806101000a81548160ff021916908360ff160217905550600190505b919050565b6000808273ffffffffffffffffffffffffffffffffffffffff163b119050919050565b60008115159050919050565b61112a81611115565b82525050565b60006020820190506111456000830184611121565b92915050565b6000819050919050565b61115e8161114b565b82525050565b60006020820190506111796000830184611155565b92915050565b600080fd5b600073ffffffffffffffffffffffffffffffffffffffff82169050919050565b60006111af82611184565b9050919050565b6111bf816111a4565b81146111ca57600080fd5b50565b6000813590506111dc816111b6565b92915050565b6111eb8161114b565b81146111f657600080fd5b50565b600081359050611208816111e2565b92915050565b6000806000606084860312156112275761122661117f565b5b6000611235868287016111cd565b9350506020611246868287016111f9565b9250506040611257868287016111f9565b9150509250925092565b6000602082840312156112775761127661117f565b5b6000611285848285016111f9565b91505092915050565b6000602082840312156112a4576112a361117f565b5b60006112b2848285016111cd565b91505092915050565b600082825260208201905092915050565b7f4e6f207374616b65727300000000000000000000000000000000000000000000600082015250565b6000611302600a836112bb565b915061130d826112cc565b602082019050919050565b60006020820190508181036000830152611331816112f5565b9050919050565b7f4e6f207374616b656420746f6b656e7300000000000000000000000000000000600082015250565b600061136e6010836112bb565b915061137982611338565b602082019050919050565b6000602082019050818103600083015261139d81611361565b9050919050565b7f4e487b7100000000000000000000000000000000000000000000000000000000600052601160045260246000fd5b60006113de8261114b565b91506113e98361114b565b9250827fffffffffffffffffffffffffffffffffffffffffffffffffffffffffffffffff0382111561141e5761141d6113a4565b5b828201905092915050565b7f57616974696e6720706572696f642069732079657420746f2070617373000000600082015250565b600061145f601d836112bb565b915061146a82611429565b602082019050919050565b6000602082019050818103600083015261148e81611452565b9050919050565b60006114a08261114b565b9150600082036114b3576114b26113a4565b5b600182039050919050565b60006114c98261114b565b91506114d48361114b565b9250828210156114e7576114e66113a4565b5b828203905092915050565b6114fb816111a4565b82525050565b600060408201905061151660008301856114f2565b6115236020830184611155565b9392505050565b61153381611115565b811461153e57600080fd5b50565b6000815190506115508161152a565b92915050565b60006020828403121561156c5761156b61117f565b5b600061157a84828501611541565b91505092915050565b7f4e487b7100000000000000000000000000000000000000000000000000000000600052601260045260246000fd5b60006115bd8261114b565b91506115c88361114b565b9250826115d8576115d7611583565b5b828204905092915050565b60006115ee8261114b565b91506115f98361114b565b9250817fffffffffffffffffffffffffffffffffffffffffffffffffffffffffffffffff0483118215151615611632576116316113a4565b5b828202905092915050565b6000819050919050565b600060ff82169050919050565b6000819050919050565b600061167961167461166f8461163d565b611654565b611647565b9050919050565b6116898161165e565b82525050565b60006020820190506116a46000830184611680565b92915050565b7f5374616b696e672074696d652068617320656c61707365640000000000000000600082015250565b60006116e06018836112bb565b91506116eb826116aa565b602082019050919050565b6000602082019050818103600083015261170f816116d3565b9050919050565b600060208201905061172b60008301846114f2565b92915050565b600081519050611740816111e2565b92915050565b60006020828403121561175c5761175b61117f565b5b600061176a84828501611731565b91505092915050565b7f4e6f7420656e6f7567682072657761726420746f6b656e2062616c616e636500600082015250565b60006117a9601f836112bb565b91506117b482611773565b602082019050919050565b600060208201905081810360008301526117d88161179c565b9050919050565b60006040820190506117f460008301856114f2565b61180160208301846114f2565b9392505050565b7f46756e6473206e6f7420617070726f7665640000000000000000000000000000600082015250565b600061183e6012836112bb565b915061184982611808565b602082019050919050565b6000602082019050818103600083015261186d81611831565b9050919050565b600060608201905061188960008301866114f2565b61189660208301856114f2565b6118a36040830184611155565b949350505050565b60006118b68261114b565b91507fffffffffffffffffffffffffffffffffffffffffffffffffffffffffffffffff82036118e8576118e76113a4565b5b600182019050919050565b7f5374616b656420746f6b656e732072656d61696e000000000000000000000000600082015250565b60006119296014836112bb565b9150611934826118f3565b602082019050919050565b600060208201905081810360008301526119588161191c565b9050919050565b7f436c61696d2074696d652077696e646f77206861732070617373656400000000600082015250565b6000611995601c836112bb565b91506119a08261195f565b602082019050919050565b600060208201905081810360008301526119c481611988565b9050919050565b7f496e697469616c697a61626c653a20636f6e747261637420697320616c72656160008201527f647920696e697469616c697a6564000000000000000000000000000000000000602082015250565b6000611a27602e836112bb565b9150611a32826119cb565b604082019050919050565b60006020820190508181036000830152611a5681611a1a565b905091905056fea2646970667358221220494669474ae2cd67719aaf6c48e517b33f4df783c838d9093195bcb3616f83a464736f6c634300080f0033",
  "immutableReferences": {},
  "source": "// SPDX-License-Identifier: MIT\r\npragma solidity ^0.8.15;\r\n\r\nimport \"@openzeppelin/contracts/token/ERC20/ERC20.sol\";\r\nimport \"@openzeppelin/contracts-upgradeable/proxy/utils/Initializable.sol\";\r\n\r\ncontract BankV1 is Initializable {\r\n    \r\n    ERC20 rewardToken;\r\n    uint256 public timePeriod;\r\n    uint256 public startTime;\r\n    uint256 stakingPool;\r\n    uint256 stakers;\r\n    address owner;\r\n    uint256 r1;\r\n    uint256 r2;\r\n    uint256 r3;\r\n\r\n    mapping(address => uint256) public stakedAmount;\r\n\r\n    event Deposited(address indexed user, uint256 indexed amount);\r\n    event Redeemed(address indexed user, uint256 indexed amount);\r\n\r\n    modifier onlyOwner() {\r\n        require(msg.sender == owner);\r\n        _;\r\n    }\r\n\r\n    //rewardContract: the ERC20 contract whose tokens are used for the reward pool\r\n    //T: Time period in seconds\r\n    //rewardPoolSize: the reward pool for staking rewards\r\n    function initialize(\r\n        address rewardContract,\r\n        uint256 T,\r\n        uint256 rewardPoolSize\r\n    ) external initializer {\r\n        rewardToken = ERC20(rewardContract);\r\n        startTime = block.timestamp;\r\n        timePeriod = T;\r\n        r1 = rewardPoolSize / 5;\r\n        r2 = (rewardPoolSize * 3) / 100;\r\n        r3 = rewardPoolSize / 2;\r\n        stakingPool = 0;\r\n        stakers = 0;\r\n        owner = msg.sender;\r\n    }\r\n\r\n    function deposit(uint256 amount) external returns (bool) {\r\n        require(\r\n            block.timestamp <= (startTime + timePeriod),\r\n            \"Staking time has elapsed\"\r\n        );\r\n        require(\r\n            rewardToken.balanceOf(msg.sender) >= amount,\r\n            \"Not enough reward token balance\"\r\n        );\r\n        require(rewardToken.allowance(msg.sender, address(this)) >= amount,\"Funds not approved\");\r\n        bool transferred = rewardToken.transferFrom(\r\n            msg.sender,\r\n            address(this),\r\n            amount\r\n        );\r\n        if (stakedAmount[msg.sender] == 0) {\r\n            stakers++;\r\n        }\r\n        stakedAmount[msg.sender] += amount;\r\n        stakingPool += amount;\r\n        emit Deposited(msg.sender, amount);\r\n        return (transferred);\r\n    }\r\n\r\n    function calculateReward(address staker) internal returns (uint256) {\r\n        uint256 reward;\r\n        uint256 availableRewardPool;\r\n        if (\r\n            block.timestamp > (startTime + 2 * timePeriod) &&\r\n            block.timestamp <= (startTime + 3 * timePeriod)\r\n        ) {\r\n            availableRewardPool = r1;\r\n            reward =\r\n                (stakedAmount[staker] * availableRewardPool) /\r\n                stakingPool;\r\n            r1 -= reward;\r\n        } else if (\r\n            block.timestamp > (startTime + 3 * timePeriod) &&\r\n            block.timestamp <= (startTime + 4 * timePeriod)\r\n        ) {\r\n            availableRewardPool = r1 + r2;\r\n            reward =\r\n                (stakedAmount[staker] * availableRewardPool) /\r\n                stakingPool;\r\n            if (reward <= r1) r1 -= reward;\r\n            else if (r1 == 0) r2 -= reward;\r\n            else {\r\n                r2 -= (reward-r1);\r\n                r1 = 0;\r\n            }\r\n        } else {\r\n            availableRewardPool = r1 + r2 + r3;\r\n            reward =\r\n                (stakedAmount[staker] * availableRewardPool) /\r\n                stakingPool;\r\n            if (reward <= r1) r1 -= reward;\r\n            else if (r1 == 0 && r2 == 0) r3 -= reward;\r\n            else if (reward <= (r1+r2)){\r\n                r2 -= (reward-r1);\r\n                r1 = 0;\r\n            }\r\n            else {\r\n                r3 -= (reward - r1 - r2);\r\n                r2 = 0;\r\n                r1 = 0;\r\n            }\r\n        }\r\n        return (reward);\r\n    }\r\n\r\n    function withdraw() external returns (bool) {\r\n        require(\r\n            stakers > 0 && stakedAmount[msg.sender] > 0 && stakingPool > 0,\r\n            \"No stakers\"\r\n        );\r\n        require(\r\n            stakedAmount[msg.sender] > 0 && stakingPool > 0,\r\n            \"No staked tokens\"\r\n        );\r\n        require(\r\n            block.timestamp > (startTime + timePeriod),\r\n            \"Waiting period is yet to pass\"\r\n        );\r\n        uint256 amount = 0;\r\n        amount += stakedAmount[msg.sender];\r\n        uint256 reward = calculateReward(msg.sender);\r\n        stakedAmount[msg.sender] = 0;\r\n        stakers--;\r\n        stakingPool -= amount;\r\n        bool transferred = rewardToken.transfer(msg.sender, amount + reward);\r\n        emit Redeemed(msg.sender,amount + reward);\r\n        return (transferred);\r\n    }\r\n\r\n    function withdrawRemaining() external onlyOwner {\r\n        require(stakingPool == 0 && stakers == 0, \"Staked tokens remain\");\r\n        require(block.timestamp < (startTime + 4 * timePeriod),\"Claim time window has passed\");\r\n        rewardToken.transfer(owner, r1+r2+r3);\r\n        r1 = 0;\r\n        r2 = 0;\r\n        r3 = 0;\r\n    } \r\n\r\n    fallback() external {}\r\n\r\n    receive() external payable {}\r\n}\r\n",
  "sourcePath": "D:\\Personal projects\\banking-staking\\contracts\\BankV1.sol",
  "compiler": {
    "name": "solc",
    "version": "0.8.15+commit.e14f2714.Emscripten.clang"
  },
  "schemaVersion": "3.4.7",
  "updatedAt": "2022-06-29T18:49:23.027Z",
  "networkType": "ethereum",
  "devdoc": {
    "kind": "dev",
    "methods": {},
    "version": 1
  },
  "userdoc": {
    "kind": "user",
    "methods": {},
    "version": 1
  }
}