{
  "contractName": "BankV1",
  "abi": [
    {
      "anonymous": false,
      "inputs": [
        {
          "indexed": false,
          "internalType": "uint8",
          "name": "version",
          "type": "uint8"
        }
      ],
      "name": "Initialized",
      "type": "event"
    },
    {
      "stateMutability": "nonpayable",
      "type": "fallback"
    },
    {
      "inputs": [
        {
          "internalType": "address",
          "name": "",
          "type": "address"
        }
      ],
      "name": "stakedAmount",
      "outputs": [
        {
          "internalType": "uint256",
          "name": "",
          "type": "uint256"
        }
      ],
      "stateMutability": "view",
      "type": "function"
    },
    {
      "stateMutability": "payable",
      "type": "receive"
    },
    {
      "inputs": [
        {
          "internalType": "address",
          "name": "rewardContract",
          "type": "address"
        },
        {
          "internalType": "uint256",
          "name": "T",
          "type": "uint256"
        },
        {
          "internalType": "uint256",
          "name": "rewardPoolSize",
          "type": "uint256"
        }
      ],
      "name": "initialize",
      "outputs": [],
      "stateMutability": "nonpayable",
      "type": "function"
    },
    {
      "inputs": [
        {
          "internalType": "uint256",
          "name": "amount",
          "type": "uint256"
        }
      ],
      "name": "deposit",
      "outputs": [
        {
          "internalType": "bool",
          "name": "",
          "type": "bool"
        }
      ],
      "stateMutability": "nonpayable",
      "type": "function"
    },
    {
      "inputs": [],
      "name": "withdraw",
      "outputs": [
        {
          "internalType": "bool",
          "name": "",
          "type": "bool"
        }
      ],
      "stateMutability": "nonpayable",
      "type": "function"
    },
    {
      "inputs": [],
      "name": "withdrawRemaining",
      "outputs": [],
      "stateMutability": "nonpayable",
      "type": "function"
    }
  ],
  "bytecode": "0x608060405234801561001057600080fd5b506118c4806100206000396000f3fe60806040526004361061004e5760003560e01c80633ccfd60b146100635780637a1ac61e1461008e578063b6b55f25146100b7578063ee38db95146100f4578063f99318551461010b57610055565b3661005557005b34801561006157600080fd5b005b34801561006f57600080fd5b50610078610148565b6040516100859190610ff6565b60405180910390f35b34801561009a57600080fd5b506100b560048036038101906100b091906110aa565b61044c565b005b3480156100c357600080fd5b506100de60048036038101906100d991906110fd565b6105c0565b6040516100eb9190610ff6565b60405180910390f35b34801561010057600080fd5b50610109610910565b005b34801561011757600080fd5b50610132600480360381019061012d919061112a565b610b13565b60405161013f9190611166565b60405180910390f35b60008060045411801561019a57506000600960003373ffffffffffffffffffffffffffffffffffffffff1673ffffffffffffffffffffffffffffffffffffffff16815260200190815260200160002054115b80156101a857506000600354115b6101e7576040517f08c379a00000000000000000000000000000000000000000000000000000000081526004016101de906111de565b60405180910390fd5b6000600960003373ffffffffffffffffffffffffffffffffffffffff1673ffffffffffffffffffffffffffffffffffffffff1681526020019081526020016000205411801561023857506000600354115b610277576040517f08c379a000000000000000000000000000000000000000000000000000000000815260040161026e9061124a565b60405180910390fd5b6001546002546102879190611299565b42116102c8576040517f08c379a00000000000000000000000000000000000000000000000000000000081526004016102bf9061133b565b60405180910390fd5b6000600960003373ffffffffffffffffffffffffffffffffffffffff1673ffffffffffffffffffffffffffffffffffffffff16815260200190815260200160002054816103159190611299565b9050600061032233610b2b565b90506000600960003373ffffffffffffffffffffffffffffffffffffffff1673ffffffffffffffffffffffffffffffffffffffff168152602001908152602001600020819055506004600081548092919061037c9061135b565b919050555081600360008282546103939190611384565b92505081905550600060029054906101000a900473ffffffffffffffffffffffffffffffffffffffff1673ffffffffffffffffffffffffffffffffffffffff1663a9059cbb3383856103e59190611299565b6040518363ffffffff1660e01b81526004016104029291906113c7565b6020604051808303816000875af1158015610421573d6000803e3d6000fd5b505050506040513d601f19601f82011682018060405250810190610445919061141c565b9250505090565b60006104586001610ec8565b9050801561047c576001600060016101000a81548160ff0219169083151502179055505b83600060026101000a81548173ffffffffffffffffffffffffffffffffffffffff021916908373ffffffffffffffffffffffffffffffffffffffff16021790555042600281905550826001819055506005826104d89190611478565b60068190555060646003836104ed91906114a9565b6104f79190611478565b60078190555060028261050a9190611478565b6008819055506000600381905550600060048190555033600560006101000a81548173ffffffffffffffffffffffffffffffffffffffff021916908373ffffffffffffffffffffffffffffffffffffffff16021790555080156105ba5760008060016101000a81548160ff0219169083151502179055507f7f26b83ff96e1f2b6a682f133852f6798a09c465da95921460cefb384740249860016040516105b19190611555565b60405180910390a15b50505050565b60006001546002546105d29190611299565b421115610614576040517f08c379a000000000000000000000000000000000000000000000000000000000815260040161060b906115bc565b60405180910390fd5b81600060029054906101000a900473ffffffffffffffffffffffffffffffffffffffff1673ffffffffffffffffffffffffffffffffffffffff166370a08231336040518263ffffffff1660e01b815260040161067091906115dc565b602060405180830381865afa15801561068d573d6000803e3d6000fd5b505050506040513d601f19601f820116820180604052508101906106b1919061160c565b10156106f2576040517f08c379a00000000000000000000000000000000000000000000000000000000081526004016106e990611685565b60405180910390fd5b600060029054906101000a900473ffffffffffffffffffffffffffffffffffffffff1673ffffffffffffffffffffffffffffffffffffffff1663095ea7b330846040518363ffffffff1660e01b815260040161074f9291906113c7565b6020604051808303816000875af115801561076e573d6000803e3d6000fd5b505050506040513d601f19601f82011682018060405250810190610792919061141c565b5060008060029054906101000a900473ffffffffffffffffffffffffffffffffffffffff1673ffffffffffffffffffffffffffffffffffffffff166323b872dd3330866040518463ffffffff1660e01b81526004016107f3939291906116a5565b6020604051808303816000875af1158015610812573d6000803e3d6000fd5b505050506040513d601f19601f82011682018060405250810190610836919061141c565b90506000600960003373ffffffffffffffffffffffffffffffffffffffff1673ffffffffffffffffffffffffffffffffffffffff16815260200190815260200160002054036108985760046000815480929190610892906116dc565b91905055505b82600960003373ffffffffffffffffffffffffffffffffffffffff1673ffffffffffffffffffffffffffffffffffffffff16815260200190815260200160002060008282546108e79190611299565b9250508190555082600360008282546109009190611299565b9250508190555080915050919050565b600560009054906101000a900473ffffffffffffffffffffffffffffffffffffffff1673ffffffffffffffffffffffffffffffffffffffff163373ffffffffffffffffffffffffffffffffffffffff161461096a57600080fd5b600060035414801561097e57506000600454145b6109bd576040517f08c379a00000000000000000000000000000000000000000000000000000000081526004016109b490611770565b60405180910390fd5b60015460046109cc91906114a9565b6002546109d99190611299565b4210610a1a576040517f08c379a0000000000000000000000000000000000000000000000000000000008152600401610a11906117dc565b60405180910390fd5b600060029054906101000a900473ffffffffffffffffffffffffffffffffffffffff1673ffffffffffffffffffffffffffffffffffffffff1663a9059cbb600560009054906101000a900473ffffffffffffffffffffffffffffffffffffffff16600854600754600654610a8e9190611299565b610a989190611299565b6040518363ffffffff1660e01b8152600401610ab59291906113c7565b6020604051808303816000875af1158015610ad4573d6000803e3d6000fd5b505050506040513d601f19601f82011682018060405250810190610af8919061141c565b50600060068190555060006007819055506000600881905550565b60096020528060005260406000206000915090505481565b6000806000905060006001546002610b4391906114a9565b600254610b509190611299565b42118015610b7957506001546003610b6891906114a9565b600254610b759190611299565b4211155b15610c0657600654905060035481610b919190611478565b600960008673ffffffffffffffffffffffffffffffffffffffff1673ffffffffffffffffffffffffffffffffffffffff16815260200190815260200160002054610bdb91906114a9565b82610be69190611299565b91508160066000828254610bfa9190611384565b92505081905550610ebe565b6001546003610c1591906114a9565b600254610c229190611299565b42118015610c4b57506001546004610c3a91906114a9565b600254610c479190611299565b4211155b15610d4b57600754600654610c609190611299565b905060035481610c709190611478565b600960008673ffffffffffffffffffffffffffffffffffffffff1673ffffffffffffffffffffffffffffffffffffffff16815260200190815260200160002054610cba91906114a9565b82610cc59190611299565b91506006548211610cee578160066000828254610ce29190611384565b92505081905550610d46565b600060065403610d16578160076000828254610d0a9190611384565b92505081905550610d45565b60065482610d249190611384565b60076000828254610d359190611384565b9250508190555060006006819055505b5b610ebd565b600854600754600654610d5e9190611299565b610d689190611299565b905060035481610d789190611478565b600960008673ffffffffffffffffffffffffffffffffffffffff1673ffffffffffffffffffffffffffffffffffffffff16815260200190815260200160002054610dc291906114a9565b82610dcd9190611299565b91506006548211610df6578160066000828254610dea9190611384565b92505081905550610ebc565b6000600654148015610e0a57506000600754145b15610e2d578160086000828254610e219190611384565b92505081905550610ebb565b600754600654610e3d9190611299565b8211610e765760065482610e519190611384565b60076000828254610e629190611384565b925050819055506000600681905550610eba565b60075460065483610e879190611384565b610e919190611384565b60086000828254610ea29190611384565b92505081905550600060078190555060006008819055505b5b5b5b5b8192505050919050565b60008060019054906101000a900460ff1615610f3f5760018260ff16148015610ef75750610ef530610fb8565b155b610f36576040517f08c379a0000000000000000000000000000000000000000000000000000000008152600401610f2d9061186e565b60405180910390fd5b60009050610fb3565b8160ff1660008054906101000a900460ff1660ff1610610f94576040517f08c379a0000000000000000000000000000000000000000000000000000000008152600401610f8b9061186e565b60405180910390fd5b816000806101000a81548160ff021916908360ff160217905550600190505b919050565b6000808273ffffffffffffffffffffffffffffffffffffffff163b119050919050565b60008115159050919050565b610ff081610fdb565b82525050565b600060208201905061100b6000830184610fe7565b92915050565b600080fd5b600073ffffffffffffffffffffffffffffffffffffffff82169050919050565b600061104182611016565b9050919050565b61105181611036565b811461105c57600080fd5b50565b60008135905061106e81611048565b92915050565b6000819050919050565b61108781611074565b811461109257600080fd5b50565b6000813590506110a48161107e565b92915050565b6000806000606084860312156110c3576110c2611011565b5b60006110d18682870161105f565b93505060206110e286828701611095565b92505060406110f386828701611095565b9150509250925092565b60006020828403121561111357611112611011565b5b600061112184828501611095565b91505092915050565b6000602082840312156111405761113f611011565b5b600061114e8482850161105f565b91505092915050565b61116081611074565b82525050565b600060208201905061117b6000830184611157565b92915050565b600082825260208201905092915050565b7f4e6f207374616b65727300000000000000000000000000000000000000000000600082015250565b60006111c8600a83611181565b91506111d382611192565b602082019050919050565b600060208201905081810360008301526111f7816111bb565b9050919050565b7f4e6f207374616b656420746f6b656e7300000000000000000000000000000000600082015250565b6000611234601083611181565b915061123f826111fe565b602082019050919050565b6000602082019050818103600083015261126381611227565b9050919050565b7f4e487b7100000000000000000000000000000000000000000000000000000000600052601160045260246000fd5b60006112a482611074565b91506112af83611074565b9250827fffffffffffffffffffffffffffffffffffffffffffffffffffffffffffffffff038211156112e4576112e361126a565b5b828201905092915050565b7f57616974696e6720706572696f642069732079657420746f2070617373000000600082015250565b6000611325601d83611181565b9150611330826112ef565b602082019050919050565b6000602082019050818103600083015261135481611318565b9050919050565b600061136682611074565b9150600082036113795761137861126a565b5b600182039050919050565b600061138f82611074565b915061139a83611074565b9250828210156113ad576113ac61126a565b5b828203905092915050565b6113c181611036565b82525050565b60006040820190506113dc60008301856113b8565b6113e96020830184611157565b9392505050565b6113f981610fdb565b811461140457600080fd5b50565b600081519050611416816113f0565b92915050565b60006020828403121561143257611431611011565b5b600061144084828501611407565b91505092915050565b7f4e487b7100000000000000000000000000000000000000000000000000000000600052601260045260246000fd5b600061148382611074565b915061148e83611074565b92508261149e5761149d611449565b5b828204905092915050565b60006114b482611074565b91506114bf83611074565b9250817fffffffffffffffffffffffffffffffffffffffffffffffffffffffffffffffff04831182151516156114f8576114f761126a565b5b828202905092915050565b6000819050919050565b600060ff82169050919050565b6000819050919050565b600061153f61153a61153584611503565b61151a565b61150d565b9050919050565b61154f81611524565b82525050565b600060208201905061156a6000830184611546565b92915050565b7f5374616b696e672074696d652068617320656c61707365640000000000000000600082015250565b60006115a6601883611181565b91506115b182611570565b602082019050919050565b600060208201905081810360008301526115d581611599565b9050919050565b60006020820190506115f160008301846113b8565b92915050565b6000815190506116068161107e565b92915050565b60006020828403121561162257611621611011565b5b6000611630848285016115f7565b91505092915050565b7f4e6f7420656e6f7567682072657761726420746f6b656e2062616c616e636500600082015250565b600061166f601f83611181565b915061167a82611639565b602082019050919050565b6000602082019050818103600083015261169e81611662565b9050919050565b60006060820190506116ba60008301866113b8565b6116c760208301856113b8565b6116d46040830184611157565b949350505050565b60006116e782611074565b91507fffffffffffffffffffffffffffffffffffffffffffffffffffffffffffffffff82036117195761171861126a565b5b600182019050919050565b7f5374616b656420746f6b656e732072656d61696e000000000000000000000000600082015250565b600061175a601483611181565b915061176582611724565b602082019050919050565b600060208201905081810360008301526117898161174d565b9050919050565b7f436c61696d2074696d652077696e646f77206861732070617373656400000000600082015250565b60006117c6601c83611181565b91506117d182611790565b602082019050919050565b600060208201905081810360008301526117f5816117b9565b9050919050565b7f496e697469616c697a61626c653a20636f6e747261637420697320616c72656160008201527f647920696e697469616c697a6564000000000000000000000000000000000000602082015250565b6000611858602e83611181565b9150611863826117fc565b604082019050919050565b600060208201905081810360008301526118878161184b565b905091905056fea26469706673582212201c60c28ade6ffae1ff193c9b833dbb3e069595232e70f43c37515bc8bdf9f0a364736f6c634300080f0033",
  "immutableReferences": {},
  "source": "// SPDX-License-Identifier: MIT\r\npragma solidity ^0.8.15;\r\n\r\nimport \"@openzeppelin/contracts/token/ERC20/ERC20.sol\";\r\nimport \"@openzeppelin/contracts-upgradeable/proxy/utils/Initializable.sol\";\r\n\r\ncontract BankV1 is Initializable {\r\n    ERC20 rewardToken;\r\n    uint256 timePeriod;\r\n    uint256 startTime;\r\n    uint256 stakingPool;\r\n    uint256 stakers;\r\n    address owner;\r\n    uint256 r1;\r\n    uint256 r2;\r\n    uint256 r3;\r\n    mapping(address => uint256) public stakedAmount;\r\n\r\n    modifier onlyOwner() {\r\n        require(msg.sender == owner);\r\n        _;\r\n    }\r\n\r\n    //rewardContract: the ERC20 contract whose tokens are used for the reward pool\r\n    //T: Time period in seconds\r\n    //rewardPoolSize: the reward pool for staking rewards\r\n    function initialize(\r\n        address rewardContract,\r\n        uint256 T,\r\n        uint256 rewardPoolSize\r\n    ) external initializer {\r\n        rewardToken = ERC20(rewardContract);\r\n        startTime = block.timestamp;\r\n        timePeriod = T;\r\n        r1 = rewardPoolSize / 5;\r\n        r2 = (rewardPoolSize * 3) / 100;\r\n        r3 = rewardPoolSize / 2;\r\n        stakingPool = 0;\r\n        stakers = 0;\r\n        owner = msg.sender;\r\n    }\r\n\r\n    function deposit(uint256 amount) external returns (bool) {\r\n        require(\r\n            block.timestamp <= (startTime + timePeriod),\r\n            \"Staking time has elapsed\"\r\n        );\r\n        require(\r\n            rewardToken.balanceOf(msg.sender) >= amount,\r\n            \"Not enough reward token balance\"\r\n        );\r\n        rewardToken.approve(address(this), amount);\r\n        bool transferred = rewardToken.transferFrom(\r\n            msg.sender,\r\n            address(this),\r\n            amount\r\n        );\r\n        if (stakedAmount[msg.sender] == 0) {\r\n            stakers++;\r\n        }\r\n        stakedAmount[msg.sender] += amount;\r\n        stakingPool += amount;\r\n        return (transferred);\r\n    }\r\n\r\n    function calculateReward(address staker) internal returns (uint256) {\r\n        uint256 reward = 0;\r\n        uint256 availableRewardPool;\r\n        if (\r\n            block.timestamp > (startTime + 2 * timePeriod) &&\r\n            block.timestamp <= (startTime + 3 * timePeriod)\r\n        ) {\r\n            availableRewardPool = r1;\r\n            reward +=\r\n                stakedAmount[staker] * (availableRewardPool /\r\n                stakingPool);\r\n            r1 -= reward;\r\n        } else if (\r\n            block.timestamp > (startTime + 3 * timePeriod) &&\r\n            block.timestamp <= (startTime + 4 * timePeriod)\r\n        ) {\r\n            availableRewardPool = r1 + r2;\r\n            reward +=\r\n                stakedAmount[staker] * (availableRewardPool /\r\n                stakingPool);\r\n            if (reward <= r1) r1 -= reward;\r\n            else if (r1 == 0) r2 -= reward;\r\n            else {\r\n                r2 -= (reward-r1);\r\n                r1 = 0;\r\n            }\r\n        } else {\r\n            availableRewardPool = r1 + r2 + r3;\r\n            reward +=\r\n                stakedAmount[staker] * (availableRewardPool /\r\n                stakingPool);\r\n            if (reward <= r1) r1 -= reward;\r\n            else if (r1 == 0 && r2 == 0) r3 -= reward;\r\n            else if (reward <= (r1+r2)){\r\n                r2 -= (reward-r1);\r\n                r1 = 0;\r\n            }\r\n            else {\r\n                r3 -= (reward - r1 - r2);\r\n                r2 = 0;\r\n                r3 = 0;\r\n            }\r\n        }\r\n        return (reward);\r\n    }\r\n\r\n    function withdraw() external returns (bool) {\r\n        require(\r\n            stakers > 0 && stakedAmount[msg.sender] > 0 && stakingPool > 0,\r\n            \"No stakers\"\r\n        );\r\n        require(\r\n            stakedAmount[msg.sender] > 0 && stakingPool > 0,\r\n            \"No staked tokens\"\r\n        );\r\n        require(\r\n            block.timestamp > (startTime + timePeriod),\r\n            \"Waiting period is yet to pass\"\r\n        );\r\n        uint256 amount = 0;\r\n        amount += stakedAmount[msg.sender];\r\n        uint256 reward = calculateReward(msg.sender);\r\n        stakedAmount[msg.sender] = 0;\r\n        stakers--;\r\n        stakingPool -= amount;\r\n        return (rewardToken.transfer(msg.sender, amount + reward));\r\n    }\r\n\r\n    function withdrawRemaining() external onlyOwner {\r\n        require(stakingPool == 0 && stakers == 0, \"Staked tokens remain\");\r\n        require(block.timestamp < (startTime + 4 * timePeriod),\"Claim time window has passed\");\r\n        rewardToken.transfer(owner, r1+r2+r3);\r\n        r1 = 0;\r\n        r2 = 0;\r\n        r3 = 0;\r\n    } \r\n\r\n    fallback() external {}\r\n\r\n    receive() external payable {}\r\n}\r\n",
  "sourcePath": "D:\\Personal projects\\banking-staking\\contracts\\BankV1.sol",
  "compiler": {
    "name": "solc",
    "version": "0.8.15+commit.e14f2714.Emscripten.clang"
  },
  "schemaVersion": "3.4.7",
  "updatedAt": "2022-06-29T09:41:08.601Z",
  "devdoc": {
    "kind": "dev",
    "methods": {},
    "version": 1
  },
  "userdoc": {
    "kind": "user",
    "methods": {},
    "version": 1
  }
}